:040000003AEF00F0E3
:100008001D82FACF12F0FBCF13F0F2AA0EEF00F028
:1000180010EF00F01BEF00F0F2A415EF00F017EF5F
:1000280000F01BEF00F0E2EC00F034EF00F0F2AC6F
:1000380020EF00F022EF00F034EF00F09DAC27EF46
:1000480000F029EF00F034EF00F09EAC2EEF00F046
:1000580030EF00F034EF00F0FFEC00F034EF00F088
:1000680013C0FBFF12C0FAFF1D9211005BEF01F0F5
:100078002CEC01F0F28E000E39EC01F01B50D8B4D4
:1000880048EF00F04AEF00F042EF00F0000E1B6E60
:10009800000EC5EC00F014C019F015C01AF0030EDC
:1000A80046EC01F0195046EC01F01A5046EC01F00C
:1000B800FC0E46EC01F042EF00F03AEF00F0480E7B
:1000C800656E900EAB6E240EAC6E8A0EAF6E000E8F
:1000D800D46E000E146E000E156E000E166E72ECC5
:1000E80001F0000E146E000E156E000E166E6BEC0D
:1000F80001F0000E146E000E156E000E166E79ECEF
:1001080001F0000E1C6E1200000E8D6E000E8C6E3B
:10011800000E896E000E8E6E000E8A6E000E8F6EB7
:10012800000E8B6E000E906E9668FE0E976E9268AB
:100138001F0E986E93689968BF0E946E95680F01AC
:100148002569246923691200D59C000ED76EBF0E5D
:10015800D66ED650D7CF17F0186A17C018F0176A9E
:100168001710106E1850116EF294F28A0E0E146E5B
:10017800030E156E000E166E64EC01F0900ED56E2F
:100188001200186E18C016F016461646C2501618F9
:10019800830B1618C26EC280C282C2B2D6EF00F0BC
:1001A800D8EF00F0D1EF00F0C450176E166AC350B4
:1001B8001624146E000E1720156E1200F2941150BA
:1001C800D76E10C0D6FF015002100310D8B4EFEF5D
:1001D80000F0F1EF00F0FEEF00F002D8FEEF00F0C3
:1001E8000500FA6E0150FD6E0250FE6E0350FF6E60
:1001F800FA50120012009E9C0D500E100F10D8B429
:1002080008EF01F00AEF01F017EF01F002D817EF3D
:1002180001F00500FA6E0D50FD6E0E50FE6E0F5087
:10022800FF6EFA5012001200010EC26E000EC16E6F
:10023800BE0EC06E000EC46E000EC36E9D8C180EEE
:10024800146E030E156E000E166E80EC01F012008F
:100258008AEC01F088EC00F051EC01F018EC01F0A8
:10026800A8EC00F063EC00F01200156E15C014F055
:1002780014461446C2501418830B1418C26EC28058
:10028800C2821200146E9EA84CEF01F04EEF01F0EE
:1002980047EF01F014C0ADFF1200600ED36E000EE0
:1002A800646E000E9B6E000E0F012A6F12001C6A0E
:1002B8001B6A1A6A196A1D901D9200013CEF00F032
:1002C80014C001F015C002F016C003F0120014C0EB
:1002D80007F015C008F016C009F0120014C00AF0A3
:1002E80015C00BF016C00CF0120014C004F015C0B5
:1002F80005F016C006F0120014C00DF015C00EF07F
:1003080016C00FF01200010E1B6E1200D09E1200D4
:020318001200D1
:020000040020DA
:08000000FFFFFFFFFFFFFFFF00
:020000040030CA
:0E00000015137F7CF98B91FFFFC0FFE0FF40DE
:00000001FF
