:040000005AEF00F0C3
:100008003982FACF01F0FBCF02F0D9CF03F0DACF73
:1000180004F0F2AC12EF00F014EF00F050EF00F033
:10002800A3A819EF00F01BEF00F032EF00F0A4A82E
:1000380020EF00F022EF00F032EF00F002D830EFAE
:1000480000F00500FA6E0001F951FD6EFA51FE6EDE
:10005800FB51FF6EFA50120050EF00F0A3AA37EFE1
:1000680000F039EF00F050EF00F0A4AA3EEF00F0E6
:1000780040EF00F050EF00F002D84EEF00F005001E
:10008800FA6E0001F651FD6EF751FE6EF851FF6EE3
:10009800FA50120050EF00F004C0DAFF03C0D9FF95
:1000A80002C0FBFF01C0FAFF3992110095EF0AF078
:101000000053544152540D0A0000000E0001DF6FDE
:10101000000EDE6FDFEC0AF08D84F28EF28C010E92
:101020001E6E100E1F6EC1EC0AF00001DE51DF6F64
:10103000DE6B05EC0AF0226E22500001DE13AA0ED0
:10104000DE1907E1AA0EDF19D8A429EF08F02BEF6B
:1010500008F015EF08F0000EDF6F000EDE6F05ECF4
:101060000AF00001E06FE051D8B439EF08F03BEF2F
:1010700008F015EF08F0000EE16F4CEF08F005ECFA
:101080000AF0226EC00E0001E125D96EDA6A000E68
:10109000DA2222C0DFFFE12BE151E05DD8B053EF4F
:1010A00008F055EF08F03FEF08F0C151C0C022F042
:1010B000236A2226000E2322C2512226000E23225A
:1010C000C3512224E26F000E2320E36F800EC0196B
:1010D000D8A46DEF08F06FEF08F015EF08F0020EDE
:1010E000C119D8A476EF08F078EF08F015EF08F0F2
:1010F000FF0EE217000EE317E21D226EE31D236EC2
:101100002250E26FE36BC451226E236AE25122182F
:1011100007E1E3512318D8A490EF08F092EF08F00C
:10112000A2EF08F0030ED4EC0AF00001C351D4EC96
:101130000AF00001C251D4EC0AF0FC0ED4EC0AF023
:1011400015EF08F015EF08F05AEF00F0600E3524A7
:10115000D96EDA6A000EDA22000EDF6E0F0122A5C8
:10116000B4EF08F0B6EF08F0CBEF08F0600E3524CE
:10117000D96EDA6A000EDA220001DF8202D8CBEFE4
:1011800008F00500FA6EF351FD6EF451FE6EF55154
:10119000FF6EFA5012000F0122A3D1EF08F0D3EF37
:1011A00008F0E8EF08F0600E3524D96EDA6A000E18
:1011B000DA220001DF8402D8E8EF08F00500FA6EB9
:1011C000F051FD6EF151FE6EF251FF6EFA501200B9
:1011D000600E3524D96EDA6A000EDA22DF50D8B4F8
:1011E000F4EF08F0F6EF08F006EF09F002D804EF8C
:1011F00009F00500FA6E0001ED51FD6EEE51FE6E34
:10120000EF51FF6EFA50120008EF09F0ACEC0AF053
:10121000120009500A10D8B410EF09F012EF09F0CB
:101220001BEF09F009500A10D8A419EF09F01BEFC1
:1012300009F020EF09F007502CEC0BF053EF09F008
:1012400020EE09F00950D9260A50DA22DE50DE10CD
:10125000D8B42DEF09F02FEF09F04AEF09F020EE96
:1012600009F00950D9260A50DA2210EE03F009508D
:10127000E1260A50E222DE50E65CE650800A0F6E5C
:10128000DE50800A0F58D8B048EF09F04AEF09F055
:1012900053EF09F020EE03F00950D9260A50DA2264
:1012A000DE2A000EDD221200A39A4C0E056E110EEE
:1012B000066E000E076EFBEC0AF0A398E80E056EB2
:1012C000140E066E000E076EF4EC0AF0480E0F01C5
:1012D000206F900E226F060E216F150E1E6F010EED
:1012E0001F6F740E056E160E066E000E076E09EC6B
:1012F0000BF0620E056E160E066E000E076E02EC07
:101300000BF06A0E056E160E066E000E076E10ECE0
:101310000BF0000E326E000E376E000E366E080EA9
:10132000386E000E356E000E346E000E336EA38ADA
:10133000120012C0D9FF13C0DAFFDECFF6FFDDCFF7
:10134000F7FF000EF86E0800F550250AD8A4ABEFA1
:1013500009F0ADEF09F0C5EF09F012C0D9FF13C0D5
:10136000DAFFDE2A000EDD22000E2D6E000E2C6E3E
:101370002CC030F02E682F6812C0D9FF13C0DAFFDE
:10138000DE2A000EDD22DBEF09F012C0D9FF13C008
:10139000DAFFDECFF6FFDDCFF7FF000EF86E0800B4
:1013A000F550076E086A10C009F011C00AF009EC88
:1013B00009F0BCEF09F0120018C01CF019C01DF0B4
:1013C000F0EF09F016C010F017C011F01C0E126EED
:1013D000000E136E1AC014F01BC015F099EC09F042
:1013E0001CC0F6FF1DC0F7FF000EF86E0800F55098
:1013F0000009D8A4FEEF09F000EF0AF0E2EF09F0CF
:10140000000E176E000E166E12003350D8B40BEF9C
:101410000AF00DEF0AF005EF0AF0600E3424D96EE1
:10142000DA6A000EDA22DF50326E000E3424D96EF2
:10143000DA6A010EDA22DF50056E342A3F0E346478
:1014400024EF0AF026EF0AF028EF0AF0000E346EBF
:10145000A39A3306A38A05501200480E656E900EBB
:10146000AB6E240EAC6E8A0EAF6E000ED46E000E04
:10147000056E000E066E000E076E1EEC0BF0000EE1
:10148000056E000E066E000E076E17EC0BF0000ED8
:10149000056E000E066E000E076E25EC0BF0000EBA
:1014A000316E1200080E8D6E000E8C6E000E896E6D
:1014B000000E8E6E000E8A6E000E8F6E000E8B6E0A
:1014C000000E906EF30E966EFE0E976E92681F0ED3
:1014D000986E93689968BF0E946E95680F012569A0
:1014E0002469FB0E236F1200080E38607AEF0AF0B1
:1014F0007CEF0AF093EF0AF0240E3624D96EDA6AF4
:10150000000EDA22DF500F011C6F362A070E3664F8
:101510008CEF0AF08EEF0AF090EF0AF0000E366EB4
:10152000382A94EF0AF0A398120001EE00F0400E62
:10153000EE6AE806FDE100EE60F0600EEE6AE80695
:10154000FDE100EE24F0140EEE6AE806FDE13990AC
:101550003992000105EF08F0000E3524D96EDA6AE1
:10156000010EDA221DCFDFFF352A3F0E3564BBEFB7
:101570000AF0BDEF0AF0BFEF0AF0000E356E332A15
:101580001200200E206E000E216E000E166E000E50
:10159000176E1EC018F01FC019F0200E1A6E000E34
:1015A0001B6EDCEC09F01200056E9EA8DAEF0AF063
:1015B000DCEF0AF0D5EF0AF005C0ADFF120038EC01
:1015C0000BF052EC0AF0EAEC0AF02DEC0AF054ECC5
:1015D00009F01200600ED36E000E646E000E9B6E5A
:1015E000000E0F012A6F120005C0F9F006C0FAF0D4
:1015F00007C0FBF0120005C0F6F006C0F7F007C008
:10160000F8F0120005C0F0F006C0F1F007C0F2F0EB
:10161000120005C0F3F006C0F4F007C0F5F01200A8
:1016200005C0EDF006C0EEF007C0EFF0120005C0F7
:10163000E7F006C0E8F007C0E9F0120005C0EAF0E4
:1016400006C0EBF007C0ECF0120005C0E4F006C0E5
:10165000E5F007C0E6F01200066E0650D4EC0AF082
:1016600012000F01229922891200ACEC0AF012003C
:06167000D09E12001200E2
:020000040020DA
:08000000FFFFFFFFFFFFFFFF00
:020000040030CA
:0E00000015127F7CF98B91FFFFC0FFE0FF40DF
:00000001FF
