:0400000051EF0CF0C0
:1010000000541B00321B00241B00581100D8120092
:101010004A1B00281500961B008E1B00861B007EB5
:101020001B00761B006E1B00661B00401B00841615
:101030000000000E5D6E20EE60F07F0EDE6AE806B6
:10104000FDE221EE80F07F0EDE6AE806FDE2000E92
:10105000546E000E536E6CEC0DF0080E446E0F0EC5
:10106000456E010E466E030E476E030E31EC0CF01A
:10107000CCEC0CF0550E4B6E000E4C6E0DEC0BF0E4
:101080005D50020D600EF324D96E000EF420DA6E6E
:1010900057C0DEFF58C0DDFF5D50020D800EF32407
:1010A000D96E010EF420DA6E55C0DEFF56C0DDFFAA
:1010B000600E306E000E316E5DC032F00EEC09F045
:1010C000800E306E010E316E5DC032F00EEC09F014
:1010D0005D50020D800EF324D96E010EF420DA6EFD
:1010E000DECF4FF0DDCF50F030504F5C536E3150BB
:1010F0005058546E030E43EC0DF0555043EC0DF078
:10110000565043EC0DF0535043EC0DF0545043EC6B
:101110000DF0FC0E43EC0DF0D00E4F6ECA0EE82E13
:10112000FED74F2EFCD75D2A400E5D18D8B49BEF3A
:1011300008F09DEF08F0A2EF08F05DC051F0526A90
:10114000A6EF08F0000E526E000E516E51C05DF019
:101150003AEF08F000EF00F062EC0DF00009D8B4AF
:10116000B4EF08F0B6EF08F0F3EF08F0C4EF08F0C2
:10117000CBEC0DF00DEF09F0C7EC0DF00DEF09F021
:10118000BFEC0DF00DEF09F019C03BF01AC03CF0B8
:1011900020EE0AF002D8D7EF08F00500FA6EDE5014
:1011A000FD6EDE50FE6EDE50FF6EFA5012003D6E98
:1011B0003E6A3E50000AD8B4E0EF08F0C0EF08F0F5
:1011C0003D50010AD8B4C0EF08F0030AD8B4B8EF14
:1011D00008F0010AD8B4BCEF08F0070AD8B4C0EF91
:1011E00008F0C0EF08F02A9024C0D9FF25C0DAFF2C
:1011F000244A252ADF50CFEC0DF02606D8A027067A
:1012000026502710D8A407EF09F009EF09F00CEFDA
:1012100009F0060E0DEF09F0030E12003F0E321812
:10122000D8A415EF09F017EF09F01BEF09F0000E35
:101230003B6E1DEF09F032283B6E3250020DF3CFAA
:1012400033F0F4CF34F033503024D96E34503120A1
:10125000DA6EDECF35F0DDCF36F035500001E9270C
:101260003650EA23000EEB23000EEC233B50020D18
:10127000F3CF33F0F4CF34F033503024D96E345000
:101280003120DA6EDECF35F0DDCF36F03550376EF7
:101290003650386E396A3A6A3750E95F3850EA5B3F
:1012A0003950EB5B3A50EC5BE9C033F0EAC034F004
:1012B000EBC035F0ECC036F0070E64EF09F0D890C3
:1012C0003632353234323332E82E5FEF09F033C034
:1012D00030F034C031F01200DBEC0DF024C0D9FF47
:1012E00025C0DAFFDF6E244A252A2606D8A0270665
:1012F00026502710D8B47FEF09F081EF09F086EF70
:1013000009F0D3EC0DF0050EBEEF09F02A8691EF3F
:1013100009F0B3EC0DF0BEEF09F0B7EC0DF0BEEF45
:1013200009F013C03BF014C03CF002D8A2EF09F062
:101330000500FA6E0150FD6E0250FE6E0350FF6E06
:10134000FA5012003D6E3E6A3E50000AD8B4ABEF30
:1013500009F08DEF09F03D50010AD8B48DEF09F086
:10136000030AD8B489EF09F0010AD8B489EF09F06B
:10137000070AD8B48DEF09F08DEF09F01200306E36
:10138000010E316E2AB4C7EF09F0C9EF09F00DEF75
:101390000AF030C023F02A922A842A900E0E286E7A
:1013A000010E226EF40E216E2A86C20E016E1B0EF5
:1013B000026E000E036E000E136E000E146EC20E4F
:1013C000046E1B0E056E000E066E000E156E000EEE
:1013D000166EC20E076E1B0E086E000E096E000E12
:1013E000176E000E186EC20E0A6E1B0E0B6E000EEC
:1013F0000C6E000E196E000E1A6EBE0E0D6E1B0ED8
:101400000E6E000E0F6E000E1B6E000E1C6EEDECCD
:101410000DF0F7EC0CF0000E316E31501200466EFC
:1014200042C049F043C04AF044C047F045C048F0CC
:101430004650BFEC09F00009D8B421EF0AF023EFC1
:101440000AF018EF0AF09C0E366E170E376E000E7B
:10145000386E470E396E000E3A6E35EC0DF0410EC7
:10146000306E000E316E000E336E010E326E08ECDF
:101470000DF0000E366E000E376E000E386E000E48
:10148000396E000E3A6E19EC0DF0AFEC0DF0E2EC97
:101490000CF0E806D8B44FEF0AF051EF0AF047EF2E
:1014A0000AF01200356E305031103210D8B45BEFB4
:1014B0000AF05DEF0AF079EF0AF03550030D010EE6
:1014C000F324D96E000EF420DA6E30C0DEFF31C096
:1014D000DEFF32C0DEFF3550020D130EF324D96E4D
:1014E000000EF420DA6E33C0DEFF34C0DDFF93EF70
:1014F0000AF03550030D010EF324D96E000EF420CE
:10150000DA6EC20EDE6E1B0EDE6E000EDE6E355023
:10151000020D130EF324D96E000EF420DA6E000EC5
:10152000DE6E000EDD6E12002A86A4EF0AF0C3EC18
:101530000DF0D1EF0AF0D9EC0DF0030ED1EF0AF067
:10154000BFEC0DF0D1EF0AF013C03BF014C03CF03B
:1015500002D8B5EF0AF00500FA6E0150FD6E025098
:10156000FE6E0350FF6EFA5012003D6E3E6A3E5012
:10157000000AD8B4BEEF0AF0A0EF0AF03D50010A0D
:10158000D8B4A0EF0AF0030AD8B497EF0AF0010A22
:10159000D8B497EF0AF0070AD8B49BEF0AF0A0EF8F
:1015A0000AF01200436E4350BFEC09F00009D8B4B2
:1015B000DCEF0AF0DEEF0AF0D3EF0AF0D80E366E59
:1015C000180E376E000E386E420E396E000E3A6EEF
:1015D00035EC0DF0410E306E000E316E000E336EA4
:1015E000010E326E08EC0DF0000E366E000E376EF6
:1015F000000E386E000E396E000E3A6E19EC0DF0CA
:10160000AFEC0DF0E2EC0CF0E806D8B40AEF0BF00A
:101610000CEF0BF002EF0BF01200050E416EED0E19
:10162000426E000E436E000E456E040E446E570E61
:101630000FEC0AF00001EE51EDC04DF04E6A4DC0C6
:101640004EF04D6A4D12000E4E124BC0D9FF4CC0E9
:10165000DAFF4DC0DEFF4EC0DDFFF051EFC04DF0B0
:101660004E6A4DC04EF04D6A4D12000E4E1220EEE5
:1016700002F04B50D9264C50DA224DC0DEFF4EC04E
:10168000DDFF12002A90020E296E4FEF0BF0C3EC23
:101690000DF076EF0BF0BFEC0DF076EF0BF017C00E
:1016A0003BF018C03CF020EE07F002D862EF0BF0E0
:1016B0000500FA6EDE50FD6EDE50FE6EDE50FF6EEF
:1016C000FA5012003D6E3E6A3E50000AD8B46BEFED
:1016D0000BF04BEF0BF03D50020AD8B447EF0BF084
:1016E000010AD8B447EF0BF04BEF0BF01200EDEC12
:1016F0000DF02AA07EEF0BF080EF0BF08CEF0BF0DB
:1017000062EC0DF00009D8B488EF0BF08AEF0BF013
:101710008CEF0BF00F0E286E2850030D010EF324F2
:10172000F66E100EF420F76EF86A000EF82202D85A
:10173000A7EF0BF00500FA6E0900F550FD6E0900E9
:10174000F550FE6E0900F550FF6EFA501200286E3B
:101750001200480E656E900EAB6E240EAC6E8A0EB3
:10176000AF6E000ED46E000E306E000E316E000EA5
:10177000326E84EC0DF0000E306E000E316E000EF5
:10178000326E7DEC0DF0000E306E000E316E000EEC
:10179000326E8BEC0DF0000E2F6E120020EE02F078
:1017A0003B50D9263C50DA22DECF30F0DDCF31F08D
:1017B0003BC0D9FF3CC0DAFFDECF32F0DDCF33F0E3
:1017C00008EC0DF0000E366E000E376E000E386E0F
:1017D000000E396E000E3A6E35EC0DF0020E12005E
:1017E0003F6E010E406E2AB2F8EF0BF0FAEF0BF0ED
:1017F0000FEF0CF02A82000E406E3F50D8B403EF7A
:101800000CF005EF0CF009EF0CF0010E286E0BEF59
:101810000CF0020E286EE7EC0DF027EC0DF04050B6
:101820001200000E8D6E000E8C6E000E896E000E82
:101830008E6E000E8A6E000E8F6E000E8B6E000E86
:10184000906E9668FE0E976E92681F0E986E936863
:101850009968BF0E946E95680F0125692469236904
:101860001200486E060E416E48C042F0570ED2EC90
:101870000AF04438F00B4510496E090E416E49C01C
:1018800042F0570ED2EC0AF04644E846FC0B4710F3
:101890004A6E070E416E4AC042F0570ED2EC0AF073
:1018A000120002EE00F0800EEE6AE806FDE101EEA5
:1018B00000F0800EEE6AE806FDE100EEE9F0080EA9
:1018C000EE6AE806FDE100EE01F02F0EEE6AE80692
:1018D000FDE1000119EF08F03BC030F03CC031F0F1
:1018E000000E336E010E326E08EC0DF0000E366EF7
:1018F000000E376E000E386E000E396E000E3A6E16
:1019000035EC0DF0040E12003BC030F03CC031F05D
:10191000000E336E020E326E08EC0DF0000E366EC5
:10192000000E376E000E386E000E396E000E3A6EE5
:1019300035EC0DF0020E12003BC030F03CC031F02F
:10194000000E336E010E326E08EC0DF0000E366E96
:10195000000E376E000E386E000E396E000E3A6EB5
:1019600035EC0DF0020E12003BC030F03CC031F0FF
:10197000000E336E020E326E08EC0DF0000E366E65
:10198000000E376E000E386E000E396E000E3A6E85
:1019900035EC0DF0040E1200020E416E000E426E88
:1019A000570ED2EC0AF0030E416E000E426E570E37
:1019B000D2EC0AF0040E416E000E426E570ED2ECCD
:1019C0000AF01200010E306E2AB2E9EF0CF0EBEFD4
:1019D0000CF0F5EF0CF02A942368EDEC0DF0E9EC37
:1019E0000DF0EBEC0DF029C030F030501200C6BA0B
:1019F000FCEF0CF0FEEF0CF007EF0DF0000EC76EE1
:101A0000080EC66E000EC56E9F0EC86EC68A120006
:101A10002AA60DEF0DF00FEF0DF018EF0DF030C00E
:101A200024F031C025F032C026F033C027F02A96CA
:101A3000120036C030F037C031F038C032F039C053
:101A400033F03AC034F0020E52EC0AF012002DEFDF
:101A50000DF075EC0DF077EC0BF02AB232EF0DF0D3
:101A600034EF0DF029EF0DF0120036C030F037C022
:101A700031F038C032F039C033F03AC034F0000EE3
:101A800052EC0AF01200306E9EA849EF0DF04BEFB9
:101A90000DF044EF0DF030C0ADFF1200600ED36EBC
:101AA000000E646E000E9B6E000E0F012A6F120076
:101AB000000EC76E080EC66E000EC56E9F0EC86E75
:101AC000C69A1200C5BC67EF0DF06AEF0DF0010E6B
:101AD0006BEF0DF0000E120058EC0DF011EC0CF055
:101AE0004EEC0DF0A9EC0BF012009EA67AEF0DF073
:101AF0007CEF0DF075EF0DF0120030C0E3F031C057
:101B0000E4F032C0E5F0120030C0E6F031C0E7F09A
:101B100032C0E8F0120030C0E0F031C0E1F032C075
:101B2000E2F012002A8023502324CFEC0DF0030EA4
:101B300012002A80D8802334CFEC0DF0050E12005D
:101B40002A92000E296E0E0E12002A90DDEC0DF086
:101B5000040E12002A92000E296E0E0E1200000EC4
:101B6000F0EC0BF01200D6EC0DF0090E1200D6ECE2
:101B70000DF00A0E1200D3EC0DF0050E1200E3EC8E
:101B80000DF0000E1200E5EC0DF0010E1200E5EC78
:101B90000DF0020E1200E5EC0DF0010E1200306E99
:101BA00030C0C9FF1200C59AC5881200C58AC58811
:101BB00012009E861200C9501200C5861200050E42
:101BC0001200010E1200C5841200C5821200C580E9
:0E1BD00012009D961200C69A12009E961200F8
:020000040020DA
:08000000FFFFFFFFFFFFFFFF00
:020000040030CA
:0E00000015137F7CF98B91FFFFC0FFE0FF40DE
:00000001FF
